{
  "contractName": "Election",
  "abi": [
    {
      "constant": true,
      "inputs": [
        {
          "name": "",
          "type": "uint256"
        }
      ],
      "name": "donationList",
      "outputs": [
        {
          "name": "id",
          "type": "uint256"
        },
        {
          "name": "amount",
          "type": "uint256"
        },
        {
          "name": "userCpf",
          "type": "uint256"
        },
        {
          "name": "partyCpnj",
          "type": "uint256"
        }
      ],
      "payable": false,
      "stateMutability": "view",
      "type": "function"
    },
    {
      "constant": true,
      "inputs": [],
      "name": "userCount",
      "outputs": [
        {
          "name": "",
          "type": "uint256"
        }
      ],
      "payable": false,
      "stateMutability": "view",
      "type": "function"
    },
    {
      "constant": true,
      "inputs": [
        {
          "name": "",
          "type": "address"
        }
      ],
      "name": "registeredUsers",
      "outputs": [
        {
          "name": "",
          "type": "uint256"
        }
      ],
      "payable": false,
      "stateMutability": "view",
      "type": "function"
    },
    {
      "constant": true,
      "inputs": [],
      "name": "donationCount",
      "outputs": [
        {
          "name": "",
          "type": "uint256"
        }
      ],
      "payable": false,
      "stateMutability": "view",
      "type": "function"
    },
    {
      "constant": true,
      "inputs": [],
      "name": "candidatesCount",
      "outputs": [
        {
          "name": "",
          "type": "uint256"
        }
      ],
      "payable": false,
      "stateMutability": "view",
      "type": "function"
    },
    {
      "constant": true,
      "inputs": [
        {
          "name": "",
          "type": "uint256"
        }
      ],
      "name": "candidates",
      "outputs": [
        {
          "name": "id",
          "type": "uint256"
        },
        {
          "name": "name",
          "type": "string"
        },
        {
          "name": "voteCount",
          "type": "uint256"
        }
      ],
      "payable": false,
      "stateMutability": "view",
      "type": "function"
    },
    {
      "constant": true,
      "inputs": [
        {
          "name": "",
          "type": "uint256"
        }
      ],
      "name": "partyList",
      "outputs": [
        {
          "name": "id",
          "type": "uint256"
        },
        {
          "name": "cnpj",
          "type": "uint256"
        },
        {
          "name": "name",
          "type": "string"
        }
      ],
      "payable": false,
      "stateMutability": "view",
      "type": "function"
    },
    {
      "constant": true,
      "inputs": [],
      "name": "candidate",
      "outputs": [
        {
          "name": "",
          "type": "string"
        }
      ],
      "payable": false,
      "stateMutability": "view",
      "type": "function"
    },
    {
      "constant": true,
      "inputs": [
        {
          "name": "",
          "type": "uint256"
        }
      ],
      "name": "cpfToAddress",
      "outputs": [
        {
          "name": "",
          "type": "address"
        }
      ],
      "payable": false,
      "stateMutability": "view",
      "type": "function"
    },
    {
      "constant": true,
      "inputs": [],
      "name": "partyCount",
      "outputs": [
        {
          "name": "",
          "type": "uint256"
        }
      ],
      "payable": false,
      "stateMutability": "view",
      "type": "function"
    },
    {
      "constant": true,
      "inputs": [
        {
          "name": "",
          "type": "uint256"
        }
      ],
      "name": "userList",
      "outputs": [
        {
          "name": "id",
          "type": "uint256"
        },
        {
          "name": "cpf",
          "type": "uint256"
        },
        {
          "name": "account",
          "type": "address"
        }
      ],
      "payable": false,
      "stateMutability": "view",
      "type": "function"
    },
    {
      "constant": true,
      "inputs": [
        {
          "name": "",
          "type": "address"
        }
      ],
      "name": "voters",
      "outputs": [
        {
          "name": "",
          "type": "bool"
        }
      ],
      "payable": false,
      "stateMutability": "view",
      "type": "function"
    },
    {
      "constant": true,
      "inputs": [
        {
          "name": "",
          "type": "uint256"
        }
      ],
      "name": "registeredParties",
      "outputs": [
        {
          "name": "",
          "type": "address"
        }
      ],
      "payable": false,
      "stateMutability": "view",
      "type": "function"
    },
    {
      "inputs": [],
      "payable": false,
      "stateMutability": "nonpayable",
      "type": "constructor"
    },
    {
      "anonymous": false,
      "inputs": [
        {
          "indexed": false,
          "name": "msg",
          "type": "uint256"
        }
      ],
      "name": "addedUser",
      "type": "event"
    },
    {
      "anonymous": false,
      "inputs": [
        {
          "indexed": false,
          "name": "msg",
          "type": "string"
        }
      ],
      "name": "errorUser",
      "type": "event"
    },
    {
      "anonymous": false,
      "inputs": [
        {
          "indexed": false,
          "name": "msg",
          "type": "string"
        }
      ],
      "name": "donationAdded",
      "type": "event"
    },
    {
      "anonymous": false,
      "inputs": [
        {
          "indexed": false,
          "name": "msg",
          "type": "string"
        }
      ],
      "name": "donationError",
      "type": "event"
    },
    {
      "constant": false,
      "inputs": [
        {
          "name": "cpf",
          "type": "uint256"
        }
      ],
      "name": "addUser",
      "outputs": [],
      "payable": false,
      "stateMutability": "nonpayable",
      "type": "function"
    },
    {
      "constant": false,
      "inputs": [
        {
          "name": "cpf",
          "type": "uint256"
        }
      ],
      "name": "newUser",
      "outputs": [],
      "payable": false,
      "stateMutability": "nonpayable",
      "type": "function"
    },
    {
      "constant": false,
      "inputs": [
        {
          "name": "userCpf",
          "type": "uint256"
        },
        {
          "name": "partyCnpj",
          "type": "uint256"
        }
      ],
      "name": "addDonation",
      "outputs": [],
      "payable": true,
      "stateMutability": "payable",
      "type": "function"
    },
    {
      "constant": false,
      "inputs": [
        {
          "name": "_candidateId",
          "type": "uint256"
        }
      ],
      "name": "vote",
      "outputs": [],
      "payable": false,
      "stateMutability": "nonpayable",
      "type": "function"
    }
  ],
  "bytecode": "0x60806040523480156200001157600080fd5b50600a600081548092919060010191905055506040518060600160405280600a54815260200163117a7be881526020016040518060400160405280600281526020017f503100000000000000000000000000000000000000000000000000000000000081525081525060066000600a54815260200190815260200160002060008201518160000155602082015181600101556040820151816002019080519060200190620000c192919062000369565b509050507334b57b3609724fbb05629d4cd6f84f598f0bade86007600063117a7be8815260200190815260200160002060006101000a81548173ffffffffffffffffffffffffffffffffffffffff021916908373ffffffffffffffffffffffffffffffffffffffff160217905550600a600081548092919060010191905055506040518060600160405280600a5481526020016185a681526020016040518060400160405280600281526020017f503200000000000000000000000000000000000000000000000000000000000081525081525060066000600a54815260200190815260200160002060008201518160000155602082015181600101556040820151816002019080519060200190620001dc92919062000369565b50905050733e6282c94a0676ba83942d51f61dc5f584678ac9600760006185a6815260200190815260200160002060006101000a81548173ffffffffffffffffffffffffffffffffffffffff021916908373ffffffffffffffffffffffffffffffffffffffff160217905550600a600081548092919060010191905055506040518060600160405280600a5481526020016254c56381526020016040518060400160405280600281526020017f503300000000000000000000000000000000000000000000000000000000000081525081525060066000600a54815260200190815260200160002060008201518160000155602082015181600101556040820151816002019080519060200190620002f692919062000369565b509050507357ea72479cc9dd1e4b5530f1639dc97440a46369600760006254c563815260200190815260200160002060006101000a81548173ffffffffffffffffffffffffffffffffffffffff021916908373ffffffffffffffffffffffffffffffffffffffff16021790555062000418565b828054600181600116156101000203166002900490600052602060002090601f016020900481019282601f10620003ac57805160ff1916838001178555620003dd565b82800160010185558215620003dd579182015b82811115620003dc578251825591602001919060010190620003bf565b5b509050620003ec9190620003f0565b5090565b6200041591905b8082111562000411576000816000905550600101620003f7565b5090565b90565b61109b80620004286000396000f3fe6080604052600436106100fe5760003560e01c8063640e79b7116100955780639f4216e8116100645780639f4216e81461057d578063a3ec138d14610606578063be80fc961461066f578063d87ffb70146106ea578063e1d8173614610722576100fe565b8063640e79b7146103855780636c8381f8146104475780637540572a146104d75780639eb8e72514610552576100fe565b80632abfab4d116100d15780632abfab4d146102325780632d35a8a21461025d5780633477ee2e1461028857806358e256781461034a576100fe565b80630121b93f146101035780630238cbdc1461013e57806307973ccf146101a25780630e50cee5146101cd575b600080fd5b34801561010f57600080fd5b5061013c6004803603602081101561012657600080fd5b810190808035906020019092919050505061075d565b005b34801561014a57600080fd5b506101776004803603602081101561016157600080fd5b8101908080359060200190929190505050610850565b6040518085815260200184815260200183815260200182815260200194505050505060405180910390f35b3480156101ae57600080fd5b506101b7610880565b6040518082815260200191505060405180910390f35b3480156101d957600080fd5b5061021c600480360360208110156101f057600080fd5b81019080803573ffffffffffffffffffffffffffffffffffffffff169060200190929190505050610886565b6040518082815260200191505060405180910390f35b34801561023e57600080fd5b5061024761089e565b6040518082815260200191505060405180910390f35b34801561026957600080fd5b506102726108a4565b6040518082815260200191505060405180910390f35b34801561029457600080fd5b506102c1600480360360208110156102ab57600080fd5b81019080803590602001909291905050506108aa565b6040518084815260200180602001838152602001828103825284818151815260200191508051906020019080838360005b8381101561030d5780820151818401526020810190506102f2565b50505050905090810190601f16801561033a5780820380516001836020036101000a031916815260200191505b5094505050505060405180910390f35b34801561035657600080fd5b506103836004803603602081101561036d57600080fd5b810190808035906020019092919050505061096c565b005b34801561039157600080fd5b506103be600480360360208110156103a857600080fd5b8101908080359060200190929190505050610b68565b6040518084815260200183815260200180602001828103825283818151815260200191508051906020019080838360005b8381101561040a5780820151818401526020810190506103ef565b50505050905090810190601f1680156104375780820380516001836020036101000a031916815260200191505b5094505050505060405180910390f35b34801561045357600080fd5b5061045c610c2a565b6040518080602001828103825283818151815260200191508051906020019080838360005b8381101561049c578082015181840152602081019050610481565b50505050905090810190601f1680156104c95780820380516001836020036101000a031916815260200191505b509250505060405180910390f35b3480156104e357600080fd5b50610510600480360360208110156104fa57600080fd5b8101908080359060200190929190505050610cc8565b604051808273ffffffffffffffffffffffffffffffffffffffff1673ffffffffffffffffffffffffffffffffffffffff16815260200191505060405180910390f35b34801561055e57600080fd5b50610567610cfb565b6040518082815260200191505060405180910390f35b34801561058957600080fd5b506105b6600480360360208110156105a057600080fd5b8101908080359060200190929190505050610d01565b604051808481526020018381526020018273ffffffffffffffffffffffffffffffffffffffff1673ffffffffffffffffffffffffffffffffffffffff168152602001935050505060405180910390f35b34801561061257600080fd5b506106556004803603602081101561062957600080fd5b81019080803573ffffffffffffffffffffffffffffffffffffffff169060200190929190505050610d4b565b604051808215151515815260200191505060405180910390f35b34801561067b57600080fd5b506106a86004803603602081101561069257600080fd5b8101908080359060200190929190505050610d6b565b604051808273ffffffffffffffffffffffffffffffffffffffff1673ffffffffffffffffffffffffffffffffffffffff16815260200191505060405180910390f35b6107206004803603604081101561070057600080fd5b810190808035906020019092919080359060200190929190505050610d9e565b005b34801561072e57600080fd5b5061075b6004803603602081101561074557600080fd5b8101908080359060200190929190505050610fb4565b005b600460003373ffffffffffffffffffffffffffffffffffffffff1673ffffffffffffffffffffffffffffffffffffffff16815260200190815260200160002060009054906101000a900460ff16156107b457600080fd5b6000811180156107c65750600c548111155b6107cf57600080fd5b6001600460003373ffffffffffffffffffffffffffffffffffffffff1673ffffffffffffffffffffffffffffffffffffffff16815260200190815260200160002060006101000a81548160ff021916908315150217905550600160008281526020019081526020016000206002016000815480929190600101919050555050565b60086020528060005260406000206000915090508060000154908060010154908060020154908060030154905084565b60095481565b60026020528060005260406000206000915090505481565b600b5481565b600c5481565b6001602052806000526040600020600091509050806000015490806001018054600181600116156101000203166002900480601f01602080910402602001604051908101604052809291908181526020018280546001816001161561010002031660029004801561095c5780601f106109315761010080835404028352916020019161095c565b820191906000526020600020905b81548152906001019060200180831161093f57829003601f168201915b5050505050908060020154905083565b6000600260003373ffffffffffffffffffffffffffffffffffffffff1673ffffffffffffffffffffffffffffffffffffffff168152602001908152602001600020541415610a615760096000815480929190600101919050555080600260003373ffffffffffffffffffffffffffffffffffffffff1673ffffffffffffffffffffffffffffffffffffffff16815260200190815260200160002081905550336003600083815260200190815260200160002060006101000a81548173ffffffffffffffffffffffffffffffffffffffff021916908373ffffffffffffffffffffffffffffffffffffffff160217905550610b64565b3373ffffffffffffffffffffffffffffffffffffffff166003600083815260200190815260200160002060009054906101000a900473ffffffffffffffffffffffffffffffffffffffff1673ffffffffffffffffffffffffffffffffffffffff1614610acc57610b65565b80600260003373ffffffffffffffffffffffffffffffffffffffff1673ffffffffffffffffffffffffffffffffffffffff1681526020019081526020016000205414610b1757610b65565b80600260003373ffffffffffffffffffffffffffffffffffffffff1673ffffffffffffffffffffffffffffffffffffffff168152602001908152602001600020541415610b6357610b65565b5b5b50565b6006602052806000526040600020600091509050806000015490806001015490806002018054600181600116156101000203166002900480601f016020809104026020016040519081016040528092919081815260200182805460018160011615610100020316600290048015610c205780601f10610bf557610100808354040283529160200191610c20565b820191906000526020600020905b815481529060010190602001808311610c0357829003601f168201915b5050505050905083565b60008054600181600116156101000203166002900480601f016020809104026020016040519081016040528092919081815260200182805460018160011615610100020316600290048015610cc05780601f10610c9557610100808354040283529160200191610cc0565b820191906000526020600020905b815481529060010190602001808311610ca357829003601f168201915b505050505081565b60036020528060005260406000206000915054906101000a900473ffffffffffffffffffffffffffffffffffffffff1681565b600a5481565b60056020528060005260406000206000915090508060000154908060010154908060020160009054906101000a900473ffffffffffffffffffffffffffffffffffffffff16905083565b60046020528060005260406000206000915054906101000a900460ff1681565b60076020528060005260406000206000915054906101000a900473ffffffffffffffffffffffffffffffffffffffff1681565b81600260003373ffffffffffffffffffffffffffffffffffffffff1673ffffffffffffffffffffffffffffffffffffffff168152602001908152602001600020541415610f475760006007600083815260200190815260200160002060009054906101000a900473ffffffffffffffffffffffffffffffffffffffff1690508073ffffffffffffffffffffffffffffffffffffffff166108fc349081150290604051600060405180830381858888f19350505050158015610e63573d6000803e3d6000fd5b50600b600081548092919060010191905055506040518060800160405280600b5481526020013481526020018481526020018381525060086000600b548152602001908152602001600020600082015181600001556020820151816001015560408201518160020155606082015181600301559050507f8662d56f41037650a087bd5d996028ea1b5830a8b1ae8bd4b0cd382f7d4acf6560405180806020018281038252601f8152602001807f446f61c3a7c3a36f207265616c697a61646120636f6d207375636573736f2e0081525060200191505060405180910390a150610fb0565b7f4f21439d89eb9f381af7672d802bcad648c0343a8d447634352f745edfc07f316040518080602001828103825260108152602001807f446f61c3a7c3a36f2066616c686f752e0000000000000000000000000000000081525060200191505060405180910390a15b5050565b600960008154809291906001019190505550604051806060016040528060095481526020018281526020013373ffffffffffffffffffffffffffffffffffffffff16815250600560006009548152602001908152602001600020600082015181600001556020820151816001015560408201518160020160006101000a81548173ffffffffffffffffffffffffffffffffffffffff021916908373ffffffffffffffffffffffffffffffffffffffff1602179055509050505056fea165627a7a72305820356151f9fd36b758c2c7ecf1855cf77c39ae66ae0211a95dddac1d914964ede90029",
  "source": "pragma solidity 0.5.8;\r\n\r\ncontract Election {\r\n    // Read/write candidate\r\n    string public candidate;\r\n\r\n\r\n    struct Candidate {\r\n        uint id;\r\n        string name;\r\n        uint voteCount;\r\n    }\r\n\r\n    struct User {\r\n    \tuint id;\r\n        uint cpf;\r\n        address account;\r\n    }\r\n\r\n    struct Party {\r\n    \tuint id;\r\n    \tuint cnpj;\r\n    \tstring name;\r\n    }\r\n\r\n    struct Donation {\r\n    \tuint id;\r\n    \tuint amount;\r\n    \tuint userCpf;\r\n    \tuint partyCpnj;\r\n    }\r\n\r\n\r\n    event addedUser (\r\n        uint msg\r\n    );\r\n\r\n    event errorUser(\r\n    \tstring msg\r\n    );\r\n\r\n    event donationAdded(\r\n    \tstring msg\r\n    );\r\n\r\n    event donationError(\r\n    \tstring msg\r\n    );\r\n    \r\n\r\n    mapping(uint => Candidate) public candidates;\r\n    mapping(address => uint) public registeredUsers;\r\n    mapping(uint => address) public cpfToAddress;\r\n    mapping(address => bool) public voters;\r\n    mapping(uint => User) public userList;\r\n    mapping(uint => Party) public partyList;\r\n    mapping(uint => address payable) public registeredParties;\r\n    mapping(uint => Donation) public donationList;\r\n\r\n\r\n    uint public userCount;\r\n    uint public partyCount;\r\n    uint public donationCount;\r\n    uint public candidatesCount;\r\n\r\n    // Constructor\r\n    constructor () public {\r\n    \tpartyCount++;\r\n       \tpartyList[partyCount] = Party(partyCount, 293239784, \"P1\");\r\n       \tregisteredParties[293239784] = 0x34b57b3609724fbb05629d4CD6F84F598f0badE8;\r\n       \tpartyCount++;\r\n       \tpartyList[partyCount] = Party(partyCount, 34214, \"P2\");\r\n       \tregisteredParties[34214] = 0x3e6282C94a0676ba83942d51F61dC5f584678ac9;\r\n       \tpartyCount++;\r\n      \tpartyList[partyCount] = Party(partyCount, 5555555, \"P3\");\r\n      \tregisteredParties[5555555] = 0x57Ea72479CC9dd1e4B5530F1639dc97440A46369;\r\n    }\r\n\r\n    function addUser (uint cpf) public {\r\n        userCount++;\r\n        userList[userCount] = User(userCount, cpf, msg.sender);\r\n    }\r\n\r\n    function newUser (uint cpf) public {\r\n    \tif(registeredUsers[msg.sender] == 0){\r\n    \t\tuserCount++;\r\n\t    \tregisteredUsers[msg.sender] = cpf;\r\n\t    \tcpfToAddress[cpf] = msg.sender;\r\n\t    \t//emit addedUser(cpf);\r\n    \t}else{\r\n\r\n    \t\tif(cpfToAddress[cpf] != msg.sender){\r\n    \t\t\t//emit errorUser(\"CPF cadastrado com outro endereço.\");\r\n    \t\t\treturn;\r\n    \t\t}\r\n    \t\tif(registeredUsers[msg.sender] != cpf){\r\n    \t\t\t//emit errorUser(\"Endereço registrado para outro cpf.\");\r\n    \t\t\treturn;\r\n    \t\t}\r\n\r\n    \t\tif(registeredUsers[msg.sender] == cpf){\r\n    \t\t\t//emit errorUser(\"Usuário já registrado com este endereço.\");\r\n    \t\t\treturn;\r\n    \t\t}\r\n    \t}\t\r\n    }\r\n\r\n   \tfunction addParty (string memory name, uint cnpj) private {\r\n        partyCount++;\r\n        partyList[partyCount] = Party(partyCount, cnpj, name);        \r\n    }\r\n\r\n    function addDonation (uint userCpf, uint partyCnpj) payable public {\r\n    \tif(registeredUsers[msg.sender] == userCpf){\r\n    \t\taddress payable party = registeredParties[partyCnpj];\r\n    \t\tparty.transfer(msg.value);\r\n    \t\tdonationCount++;\r\n        \tdonationList[donationCount] = Donation(donationCount, msg.value, userCpf, partyCnpj);\r\n        \temit donationAdded(\"Doação realizada com sucesso.\");\r\n    \t}else{\r\n    \t\temit donationError(\"Doação falhou.\");\r\n    \t}\r\n    }\r\n\r\n    function vote (uint _candidateId) public {\r\n        // require that they haven't voted before\r\n        require(!voters[msg.sender]);\r\n\r\n        // require a valid candidate\r\n        require(_candidateId > 0 && _candidateId <= candidatesCount);\r\n\r\n        // record that voter has voted\r\n        voters[msg.sender] = true;\r\n\r\n        // update candidate vote Count\r\n        candidates[_candidateId].voteCount ++;\r\n    \t\r\n    \t// trigger voted event\r\n\r\n    }\r\n}",
  "sourcePath": "C:/Users/Pichau/Desktop/election/contracts/Election.sol",
  "compiler": {
    "name": "solc",
    "version": "0.5.8+commit.23d335f2.Emscripten.clang"
  },
  "schemaVersion": "3.0.11",
  "updatedAt": "2019-06-26T00:16:15.216Z",
  "devdoc": {
    "methods": {}
  },
  "userdoc": {
    "methods": {}
  }
}